{
  "_format": "hh3-artifact-1",
  "contractName": "CrowdToken",
  "sourceName": "contracts/CrowdToken.sol",
  "abi": [
    {
      "inputs": [],
      "stateMutability": "nonpayable",
      "type": "constructor"
    },
    {
      "inputs": [
        {
          "internalType": "address",
          "name": "spender",
          "type": "address"
        },
        {
          "internalType": "uint256",
          "name": "allowance",
          "type": "uint256"
        },
        {
          "internalType": "uint256",
          "name": "needed",
          "type": "uint256"
        }
      ],
      "name": "ERC20InsufficientAllowance",
      "type": "error"
    },
    {
      "inputs": [
        {
          "internalType": "address",
          "name": "sender",
          "type": "address"
        },
        {
          "internalType": "uint256",
          "name": "balance",
          "type": "uint256"
        },
        {
          "internalType": "uint256",
          "name": "needed",
          "type": "uint256"
        }
      ],
      "name": "ERC20InsufficientBalance",
      "type": "error"
    },
    {
      "inputs": [
        {
          "internalType": "address",
          "name": "approver",
          "type": "address"
        }
      ],
      "name": "ERC20InvalidApprover",
      "type": "error"
    },
    {
      "inputs": [
        {
          "internalType": "address",
          "name": "receiver",
          "type": "address"
        }
      ],
      "name": "ERC20InvalidReceiver",
      "type": "error"
    },
    {
      "inputs": [
        {
          "internalType": "address",
          "name": "sender",
          "type": "address"
        }
      ],
      "name": "ERC20InvalidSender",
      "type": "error"
    },
    {
      "inputs": [
        {
          "internalType": "address",
          "name": "spender",
          "type": "address"
        }
      ],
      "name": "ERC20InvalidSpender",
      "type": "error"
    },
    {
      "anonymous": false,
      "inputs": [
        {
          "indexed": true,
          "internalType": "address",
          "name": "owner",
          "type": "address"
        },
        {
          "indexed": true,
          "internalType": "address",
          "name": "spender",
          "type": "address"
        },
        {
          "indexed": false,
          "internalType": "uint256",
          "name": "value",
          "type": "uint256"
        }
      ],
      "name": "Approval",
      "type": "event"
    },
    {
      "anonymous": false,
      "inputs": [
        {
          "indexed": true,
          "internalType": "address",
          "name": "from",
          "type": "address"
        },
        {
          "indexed": true,
          "internalType": "address",
          "name": "to",
          "type": "address"
        },
        {
          "indexed": false,
          "internalType": "uint256",
          "name": "value",
          "type": "uint256"
        }
      ],
      "name": "Transfer",
      "type": "event"
    },
    {
      "inputs": [
        {
          "internalType": "address",
          "name": "owner",
          "type": "address"
        },
        {
          "internalType": "address",
          "name": "spender",
          "type": "address"
        }
      ],
      "name": "allowance",
      "outputs": [
        {
          "internalType": "uint256",
          "name": "",
          "type": "uint256"
        }
      ],
      "stateMutability": "view",
      "type": "function"
    },
    {
      "inputs": [
        {
          "internalType": "address",
          "name": "spender",
          "type": "address"
        },
        {
          "internalType": "uint256",
          "name": "value",
          "type": "uint256"
        }
      ],
      "name": "approve",
      "outputs": [
        {
          "internalType": "bool",
          "name": "",
          "type": "bool"
        }
      ],
      "stateMutability": "nonpayable",
      "type": "function"
    },
    {
      "inputs": [
        {
          "internalType": "address",
          "name": "account",
          "type": "address"
        }
      ],
      "name": "balanceOf",
      "outputs": [
        {
          "internalType": "uint256",
          "name": "",
          "type": "uint256"
        }
      ],
      "stateMutability": "view",
      "type": "function"
    },
    {
      "inputs": [],
      "name": "decimals",
      "outputs": [
        {
          "internalType": "uint8",
          "name": "",
          "type": "uint8"
        }
      ],
      "stateMutability": "view",
      "type": "function"
    },
    {
      "inputs": [
        {
          "internalType": "address",
          "name": "to",
          "type": "address"
        },
        {
          "internalType": "uint256",
          "name": "amount",
          "type": "uint256"
        }
      ],
      "name": "mint",
      "outputs": [],
      "stateMutability": "nonpayable",
      "type": "function"
    },
    {
      "inputs": [],
      "name": "minter",
      "outputs": [
        {
          "internalType": "address",
          "name": "",
          "type": "address"
        }
      ],
      "stateMutability": "view",
      "type": "function"
    },
    {
      "inputs": [],
      "name": "name",
      "outputs": [
        {
          "internalType": "string",
          "name": "",
          "type": "string"
        }
      ],
      "stateMutability": "view",
      "type": "function"
    },
    {
      "inputs": [],
      "name": "symbol",
      "outputs": [
        {
          "internalType": "string",
          "name": "",
          "type": "string"
        }
      ],
      "stateMutability": "view",
      "type": "function"
    },
    {
      "inputs": [],
      "name": "totalSupply",
      "outputs": [
        {
          "internalType": "uint256",
          "name": "",
          "type": "uint256"
        }
      ],
      "stateMutability": "view",
      "type": "function"
    },
    {
      "inputs": [
        {
          "internalType": "address",
          "name": "to",
          "type": "address"
        },
        {
          "internalType": "uint256",
          "name": "value",
          "type": "uint256"
        }
      ],
      "name": "transfer",
      "outputs": [
        {
          "internalType": "bool",
          "name": "",
          "type": "bool"
        }
      ],
      "stateMutability": "nonpayable",
      "type": "function"
    },
    {
      "inputs": [
        {
          "internalType": "address",
          "name": "from",
          "type": "address"
        },
        {
          "internalType": "address",
          "name": "to",
          "type": "address"
        },
        {
          "internalType": "uint256",
          "name": "value",
          "type": "uint256"
        }
      ],
      "name": "transferFrom",
      "outputs": [
        {
          "internalType": "bool",
          "name": "",
          "type": "bool"
        }
      ],
      "stateMutability": "nonpayable",
      "type": "function"
    },
    {
      "inputs": [
        {
          "internalType": "address",
          "name": "_newMinter",
          "type": "address"
        }
      ],
      "name": "transferMinter",
      "outputs": [],
      "stateMutability": "nonpayable",
      "type": "function"
    }
  ],
  "bytecode": "0x608060405234801561000f575f5ffd5b506040518060400160405280601081526020016f10dc9bddd9199d5b990814995dd85c9960821b815250604051806040016040528060048152602001634346524560e01b81525081600390816100659190610124565b5060046100728282610124565b5050600580546001600160a01b03191633179055506101de565b634e487b7160e01b5f52604160045260245ffd5b600181811c908216806100b457607f821691505b6020821081036100d257634e487b7160e01b5f52602260045260245ffd5b50919050565b601f82111561011f57805f5260205f20601f840160051c810160208510156100fd5750805b601f840160051c820191505b8181101561011c575f8155600101610109565b50505b505050565b81516001600160401b0381111561013d5761013d61008c565b6101518161014b84546100a0565b846100d8565b6020601f821160018114610183575f831561016c5750848201515b5f19600385901b1c1916600184901b17845561011c565b5f84815260208120601f198516915b828110156101b25787850151825560209485019460019092019101610192565b50848210156101cf57868401515f19600387901b60f8161c191681555b50505050600190811b01905550565b610869806101eb5f395ff3fe608060405234801561000f575f5ffd5b50600436106100b1575f3560e01c806340c10f191161006e57806340c10f191461015557806370a082311461016a57806395d89b4114610192578063a9059cbb1461019a578063dd62ed3e146101ad578063fe99ad5a146101e5575f5ffd5b806306fdde03146100b557806307546172146100d3578063095ea7b3146100fe57806318160ddd1461012157806323b872dd14610133578063313ce56714610146575b5f5ffd5b6100bd6101f8565b6040516100ca91906106d9565b60405180910390f35b6005546100e6906001600160a01b031681565b6040516001600160a01b0390911681526020016100ca565b61011161010c366004610729565b610288565b60405190151581526020016100ca565b6002545b6040519081526020016100ca565b610111610141366004610751565b6102a1565b604051601281526020016100ca565b610168610163366004610729565b6102c4565b005b61012561017836600461078b565b6001600160a01b03165f9081526020819052604090205490565b6100bd61032a565b6101116101a8366004610729565b610339565b6101256101bb3660046107ab565b6001600160a01b039182165f90815260016020908152604080832093909416825291909152205490565b6101686101f336600461078b565b610346565b606060038054610207906107dc565b80601f0160208091040260200160405190810160405280929190818152602001828054610233906107dc565b801561027e5780601f106102555761010080835404028352916020019161027e565b820191905f5260205f20905b81548152906001019060200180831161026157829003601f168201915b5050505050905090565b5f336102958185856103c2565b60019150505b92915050565b5f336102ae8582856103d4565b6102b9858585610450565b506001949350505050565b6005546001600160a01b0316331461031c5760405162461bcd60e51b815260206004820152601660248201527513db9b1e4818dbdb9d1c9858dd0818d85b881b5a5b9d60521b60448201526064015b60405180910390fd5b61032682826104ad565b5050565b606060048054610207906107dc565b5f33610295818585610450565b6005546001600160a01b031633146103a05760405162461bcd60e51b815260206004820152601860248201527f4f6e6c79206d696e7465722063616e207472616e7366657200000000000000006044820152606401610313565b600580546001600160a01b0319166001600160a01b0392909216919091179055565b6103cf83838360016104e1565b505050565b6001600160a01b038381165f908152600160209081526040808320938616835292905220545f1981101561044a578181101561043c57604051637dc7a0d960e11b81526001600160a01b03841660048201526024810182905260448101839052606401610313565b61044a84848484035f6104e1565b50505050565b6001600160a01b03831661047957604051634b637e8f60e11b81525f6004820152602401610313565b6001600160a01b0382166104a25760405163ec442f0560e01b81525f6004820152602401610313565b6103cf8383836105b3565b6001600160a01b0382166104d65760405163ec442f0560e01b81525f6004820152602401610313565b6103265f83836105b3565b6001600160a01b03841661050a5760405163e602df0560e01b81525f6004820152602401610313565b6001600160a01b03831661053357604051634a1406b160e11b81525f6004820152602401610313565b6001600160a01b038085165f908152600160209081526040808320938716835292905220829055801561044a57826001600160a01b0316846001600160a01b03167f8c5be1e5ebec7d5bd14f71427d1e84f3dd0314c0f7b2291e5b200ac8c7c3b925846040516105a591815260200190565b60405180910390a350505050565b6001600160a01b0383166105dd578060025f8282546105d29190610814565b9091555061064d9050565b6001600160a01b0383165f908152602081905260409020548181101561062f5760405163391434e360e21b81526001600160a01b03851660048201526024810182905260448101839052606401610313565b6001600160a01b0384165f9081526020819052604090209082900390555b6001600160a01b03821661066957600280548290039055610687565b6001600160a01b0382165f9081526020819052604090208054820190555b816001600160a01b0316836001600160a01b03167fddf252ad1be2c89b69c2b068fc378daa952ba7f163c4a11628f55a4df523b3ef836040516106cc91815260200190565b60405180910390a3505050565b602081525f82518060208401528060208501604085015e5f604082850101526040601f19601f83011684010191505092915050565b80356001600160a01b0381168114610724575f5ffd5b919050565b5f5f6040838503121561073a575f5ffd5b6107438361070e565b946020939093013593505050565b5f5f5f60608486031215610763575f5ffd5b61076c8461070e565b925061077a6020850161070e565b929592945050506040919091013590565b5f6020828403121561079b575f5ffd5b6107a48261070e565b9392505050565b5f5f604083850312156107bc575f5ffd5b6107c58361070e565b91506107d36020840161070e565b90509250929050565b600181811c908216806107f057607f821691505b60208210810361080e57634e487b7160e01b5f52602260045260245ffd5b50919050565b8082018082111561029b57634e487b7160e01b5f52601160045260245ffdfea2646970667358221220ea8e537deb20879873ed02695eb4a2da8a0fb1f72f4873325d607f379897919064736f6c634300081c0033",
  "linkReferences": {},
  "deployedLinkReferences": {},
  "immutableReferences": {},
  "inputSourceName": "project/contracts/CrowdToken.sol",
  "buildInfoId": "solc-0_8_28-d920ef4ebabcb5f9a4eeadfec2943c0f1cbfb870"
}