{
  "_format": "hh3-artifact-1",
  "contractName": "Crowdfunding",
  "sourceName": "contracts/Crowdfunding.sol",
  "abi": [
    {
      "inputs": [
        {
          "internalType": "address",
          "name": "_tokenAddress",
          "type": "address"
        }
      ],
      "stateMutability": "nonpayable",
      "type": "constructor"
    },
    {
      "anonymous": false,
      "inputs": [
        {
          "indexed": false,
          "internalType": "uint256",
          "name": "id",
          "type": "uint256"
        },
        {
          "indexed": false,
          "internalType": "string",
          "name": "title",
          "type": "string"
        },
        {
          "indexed": false,
          "internalType": "uint256",
          "name": "goal",
          "type": "uint256"
        },
        {
          "indexed": false,
          "internalType": "uint256",
          "name": "deadline",
          "type": "uint256"
        },
        {
          "indexed": false,
          "internalType": "address",
          "name": "creator",
          "type": "address"
        }
      ],
      "name": "CampaignCreated",
      "type": "event"
    },
    {
      "anonymous": false,
      "inputs": [
        {
          "indexed": false,
          "internalType": "uint256",
          "name": "id",
          "type": "uint256"
        },
        {
          "indexed": false,
          "internalType": "address",
          "name": "contributor",
          "type": "address"
        },
        {
          "indexed": false,
          "internalType": "uint256",
          "name": "amount",
          "type": "uint256"
        }
      ],
      "name": "ContributionMade",
      "type": "event"
    },
    {
      "anonymous": false,
      "inputs": [
        {
          "indexed": false,
          "internalType": "uint256",
          "name": "id",
          "type": "uint256"
        },
        {
          "indexed": false,
          "internalType": "address",
          "name": "creator",
          "type": "address"
        },
        {
          "indexed": false,
          "internalType": "uint256",
          "name": "amount",
          "type": "uint256"
        }
      ],
      "name": "FundsWithdrawn",
      "type": "event"
    },
    {
      "inputs": [],
      "name": "campaignCount",
      "outputs": [
        {
          "internalType": "uint256",
          "name": "",
          "type": "uint256"
        }
      ],
      "stateMutability": "view",
      "type": "function"
    },
    {
      "inputs": [
        {
          "internalType": "uint256",
          "name": "",
          "type": "uint256"
        }
      ],
      "name": "campaigns",
      "outputs": [
        {
          "internalType": "string",
          "name": "title",
          "type": "string"
        },
        {
          "internalType": "uint256",
          "name": "goal",
          "type": "uint256"
        },
        {
          "internalType": "uint256",
          "name": "deadline",
          "type": "uint256"
        },
        {
          "internalType": "uint256",
          "name": "totalRaised",
          "type": "uint256"
        },
        {
          "internalType": "bool",
          "name": "finalized",
          "type": "bool"
        },
        {
          "internalType": "address",
          "name": "creator",
          "type": "address"
        },
        {
          "internalType": "bool",
          "name": "withdrawn",
          "type": "bool"
        }
      ],
      "stateMutability": "view",
      "type": "function"
    },
    {
      "inputs": [
        {
          "internalType": "uint256",
          "name": "_campaignId",
          "type": "uint256"
        }
      ],
      "name": "contribute",
      "outputs": [],
      "stateMutability": "payable",
      "type": "function"
    },
    {
      "inputs": [
        {
          "internalType": "uint256",
          "name": "",
          "type": "uint256"
        },
        {
          "internalType": "address",
          "name": "",
          "type": "address"
        }
      ],
      "name": "contributions",
      "outputs": [
        {
          "internalType": "uint256",
          "name": "",
          "type": "uint256"
        }
      ],
      "stateMutability": "view",
      "type": "function"
    },
    {
      "inputs": [
        {
          "internalType": "string",
          "name": "_title",
          "type": "string"
        },
        {
          "internalType": "uint256",
          "name": "_goal",
          "type": "uint256"
        },
        {
          "internalType": "uint256",
          "name": "_durationSeconds",
          "type": "uint256"
        }
      ],
      "name": "createCampaign",
      "outputs": [],
      "stateMutability": "nonpayable",
      "type": "function"
    },
    {
      "inputs": [
        {
          "internalType": "uint256",
          "name": "_campaignId",
          "type": "uint256"
        }
      ],
      "name": "finalizeCampaign",
      "outputs": [],
      "stateMutability": "nonpayable",
      "type": "function"
    },
    {
      "inputs": [],
      "name": "token",
      "outputs": [
        {
          "internalType": "contract CrowdToken",
          "name": "",
          "type": "address"
        }
      ],
      "stateMutability": "view",
      "type": "function"
    },
    {
      "inputs": [
        {
          "internalType": "uint256",
          "name": "_campaignId",
          "type": "uint256"
        }
      ],
      "name": "withdrawFunds",
      "outputs": [],
      "stateMutability": "nonpayable",
      "type": "function"
    }
  ],
  "bytecode": "0x6080604052348015600e575f5ffd5b50604051610bad380380610bad833981016040819052602b91604e565b5f80546001600160a01b0319166001600160a01b03929092169190911790556079565b5f60208284031215605d575f5ffd5b81516001600160a01b03811681146072575f5ffd5b9392505050565b610b27806100865f395ff3fe608060405260043610610079575f3560e01c80636b5ca27d1161004c5780636b5ca27d1461013c5780637274e30d1461015b578063c1cbbca714610170578063fc0c546a14610183575f5ffd5b8063141961bc1461007d578063155dd5ee146100b85780633020580b146100d95780633d891f59146100f8575b5f5ffd5b348015610088575f5ffd5b5061009c610097366004610778565b6101b9565b6040516100af97969594939291906107bd565b60405180910390f35b3480156100c3575f5ffd5b506100d76100d2366004610778565b61028b565b005b3480156100e4575f5ffd5b506100d76100f336600461081f565b61043d565b348015610103575f5ffd5b5061012e6101123660046108df565b600360209081525f928352604080842090915290825290205481565b6040519081526020016100af565b348015610147575f5ffd5b506100d7610156366004610778565b610575565b348015610166575f5ffd5b5061012e60015481565b6100d761017e366004610778565b6105e0565b34801561018e575f5ffd5b505f546101a1906001600160a01b031681565b6040516001600160a01b0390911681526020016100af565b60026020525f90815260409020805481906101d390610918565b80601f01602080910402602001604051908101604052809291908181526020018280546101ff90610918565b801561024a5780601f106102215761010080835404028352916020019161024a565b820191905f5260205f20905b81548152906001019060200180831161022d57829003601f168201915b505050506001830154600284015460038501546004909501549394919390925060ff8082169161010081046001600160a01b031691600160a81b9091041687565b5f818152600260205260409020600481015461010090046001600160a01b031633146102fe5760405162461bcd60e51b815260206004820152601960248201527f4f6e6c792063726561746f722063616e2077697468647261770000000000000060448201526064015b60405180910390fd5b8060010154816003015410156103565760405162461bcd60e51b815260206004820152601860248201527f46756e64696e6720676f616c206e6f742072656163686564000000000000000060448201526064016102f5565b6004810154600160a81b900460ff16156103b25760405162461bcd60e51b815260206004820152601760248201527f46756e647320616c72656164792077697468647261776e00000000000000000060448201526064016102f5565b60048101805460ff60a81b1916600160a81b1790556003810154604051339082156108fc029083905f818181858888f193505050501580156103f6573d5f5f3e3d5ffd5b50604080518481523360208201529081018290527ff440aec6b52895984d061d622e6edeba6210f7c3e059be920663140c084560d7906060015b60405180910390a1505050565b60018054905f61044c83610964565b91905055506040518060e001604052808481526020018381526020018242610474919061097c565b81525f60208083018290526040808401839052336060850152608090930182905260015482526002905220815181906104ad90826109e1565b506020820151600180830191909155604083015160028301556060830151600383015560808301516004909201805460a085015160c0909501511515600160a81b0260ff60a81b196001600160a01b0390961661010002610100600160a81b0319951515959095166001600160a81b031990921691909117939093179390931691909117909155547f55c246c9acac35defa7b5b11325208f9615273b139a7d1642a880afb4568637e908484610563854261097c565b33604051610430959493929190610a9c565b5f818152600260208190526040909120908101544210156105cf5760405162461bcd60e51b8152602060048201526014602482015273111958591b1a5b99481b9bdd081c995858da195960621b60448201526064016102f5565b600401805460ff1916600117905550565b5f8181526002602081905260409091209081015442106106335760405162461bcd60e51b815260206004820152600e60248201526d10d85b5c185a59db88195b99195960921b60448201526064016102f5565b5f341161067b5760405162461bcd60e51b815260206004820152601660248201527553656e642045544820746f20636f6e7472696275746560501b60448201526064016102f5565b34816003015f82825461068e919061097c565b90915550505f828152600360209081526040808320338452909152812080543492906106bb90849061097c565b90915550505f546001600160a01b03166340c10f19336106dc346064610ada565b6040516001600160e01b031960e085901b1681526001600160a01b03909216600483015260248201526044015f604051808303815f87803b15801561071f575f5ffd5b505af1158015610731573d5f5f3e3d5ffd5b505060408051858152336020820152348183015290517f0a4a91237423e0a1766a761c7cb029311d8b95d6b1b81db1b949a70c98b4e08e9350908190036060019150a15050565b5f60208284031215610788575f5ffd5b5035919050565b5f81518084528060208401602086015e5f602082860101526020601f19601f83011685010191505092915050565b60e081525f6107cf60e083018a61078f565b6020830198909852506040810195909552606085019390935290151560808401526001600160a01b031660a0830152151560c090910152919050565b634e487b7160e01b5f52604160045260245ffd5b5f5f5f60608486031215610831575f5ffd5b833567ffffffffffffffff811115610847575f5ffd5b8401601f81018613610857575f5ffd5b803567ffffffffffffffff8111156108715761087161080b565b604051601f8201601f19908116603f0116810167ffffffffffffffff811182821017156108a0576108a061080b565b6040528181528282016020018810156108b7575f5ffd5b816020840160208301375f602092820183015297908601359650604090950135949350505050565b5f5f604083850312156108f0575f5ffd5b8235915060208301356001600160a01b038116811461090d575f5ffd5b809150509250929050565b600181811c9082168061092c57607f821691505b60208210810361094a57634e487b7160e01b5f52602260045260245ffd5b50919050565b634e487b7160e01b5f52601160045260245ffd5b5f6001820161097557610975610950565b5060010190565b8082018082111561098f5761098f610950565b92915050565b601f8211156109dc57805f5260205f20601f840160051c810160208510156109ba5750805b601f840160051c820191505b818110156109d9575f81556001016109c6565b50505b505050565b815167ffffffffffffffff8111156109fb576109fb61080b565b610a0f81610a098454610918565b84610995565b6020601f821160018114610a41575f8315610a2a5750848201515b5f19600385901b1c1916600184901b1784556109d9565b5f84815260208120601f198516915b82811015610a705787850151825560209485019460019092019101610a50565b5084821015610a8d57868401515f19600387901b60f8161c191681555b50505050600190811b01905550565b85815260a060208201525f610ab460a083018761078f565b60408301959095525060608101929092526001600160a01b031660809091015292915050565b808202811582820484141761098f5761098f61095056fea2646970667358221220d007e02109a760551c0d55f9afcb614d2f25279f6ab0a7ae873e012e26f4e2e164736f6c634300081c0033",
  "linkReferences": {},
  "deployedLinkReferences": {},
  "immutableReferences": {},
  "inputSourceName": "project/contracts/Crowdfunding.sol",
  "buildInfoId": "solc-0_8_28-65c9cde575b4e9aaa5d8ed0e98fed53c589197fc"
}