{
  "_format": "hh3-artifact-1",
  "contractName": "Crowdfunding",
  "sourceName": "contracts/Crowdfunding.sol",
  "abi": [
    {
      "inputs": [
        {
          "internalType": "address",
          "name": "_tokenAddress",
          "type": "address"
        }
      ],
      "stateMutability": "nonpayable",
      "type": "constructor"
    },
    {
      "anonymous": false,
      "inputs": [
        {
          "indexed": false,
          "internalType": "uint256",
          "name": "id",
          "type": "uint256"
        },
        {
          "indexed": false,
          "internalType": "string",
          "name": "title",
          "type": "string"
        },
        {
          "indexed": false,
          "internalType": "uint256",
          "name": "goal",
          "type": "uint256"
        },
        {
          "indexed": false,
          "internalType": "uint256",
          "name": "deadline",
          "type": "uint256"
        }
      ],
      "name": "CampaignCreated",
      "type": "event"
    },
    {
      "anonymous": false,
      "inputs": [
        {
          "indexed": false,
          "internalType": "uint256",
          "name": "id",
          "type": "uint256"
        },
        {
          "indexed": false,
          "internalType": "address",
          "name": "contributor",
          "type": "address"
        },
        {
          "indexed": false,
          "internalType": "uint256",
          "name": "amount",
          "type": "uint256"
        }
      ],
      "name": "ContributionMade",
      "type": "event"
    },
    {
      "inputs": [],
      "name": "campaignCount",
      "outputs": [
        {
          "internalType": "uint256",
          "name": "",
          "type": "uint256"
        }
      ],
      "stateMutability": "view",
      "type": "function"
    },
    {
      "inputs": [
        {
          "internalType": "uint256",
          "name": "",
          "type": "uint256"
        }
      ],
      "name": "campaigns",
      "outputs": [
        {
          "internalType": "string",
          "name": "title",
          "type": "string"
        },
        {
          "internalType": "uint256",
          "name": "goal",
          "type": "uint256"
        },
        {
          "internalType": "uint256",
          "name": "deadline",
          "type": "uint256"
        },
        {
          "internalType": "uint256",
          "name": "totalRaised",
          "type": "uint256"
        },
        {
          "internalType": "bool",
          "name": "finalized",
          "type": "bool"
        }
      ],
      "stateMutability": "view",
      "type": "function"
    },
    {
      "inputs": [
        {
          "internalType": "uint256",
          "name": "_campaignId",
          "type": "uint256"
        }
      ],
      "name": "contribute",
      "outputs": [],
      "stateMutability": "payable",
      "type": "function"
    },
    {
      "inputs": [
        {
          "internalType": "uint256",
          "name": "",
          "type": "uint256"
        },
        {
          "internalType": "address",
          "name": "",
          "type": "address"
        }
      ],
      "name": "contributions",
      "outputs": [
        {
          "internalType": "uint256",
          "name": "",
          "type": "uint256"
        }
      ],
      "stateMutability": "view",
      "type": "function"
    },
    {
      "inputs": [
        {
          "internalType": "string",
          "name": "_title",
          "type": "string"
        },
        {
          "internalType": "uint256",
          "name": "_goal",
          "type": "uint256"
        },
        {
          "internalType": "uint256",
          "name": "_durationSeconds",
          "type": "uint256"
        }
      ],
      "name": "createCampaign",
      "outputs": [],
      "stateMutability": "nonpayable",
      "type": "function"
    },
    {
      "inputs": [
        {
          "internalType": "uint256",
          "name": "_campaignId",
          "type": "uint256"
        }
      ],
      "name": "finalizeCampaign",
      "outputs": [],
      "stateMutability": "nonpayable",
      "type": "function"
    },
    {
      "inputs": [],
      "name": "token",
      "outputs": [
        {
          "internalType": "contract CrowdToken",
          "name": "",
          "type": "address"
        }
      ],
      "stateMutability": "view",
      "type": "function"
    }
  ],
  "bytecode": "0x6080604052348015600e575f5ffd5b50604051610943380380610943833981016040819052602b91604e565b5f80546001600160a01b0319166001600160a01b03929092169190911790556079565b5f60208284031215605d575f5ffd5b81516001600160a01b03811681146072575f5ffd5b9392505050565b6108bd806100865f395ff3fe60806040526004361061006e575f3560e01c80636b5ca27d1161004c5780636b5ca27d146101105780637274e30d1461012f578063c1cbbca714610144578063fc0c546a14610157575f5ffd5b8063141961bc146100725780633020580b146100ab5780633d891f59146100cc575b5f5ffd5b34801561007d575f5ffd5b5061009161008c366004610537565b61018d565b6040516100a295949392919061057c565b60405180910390f35b3480156100b6575f5ffd5b506100ca6100c53660046105c8565b610244565b005b3480156100d7575f5ffd5b506101026100e6366004610688565b600360209081525f928352604080842090915290825290205481565b6040519081526020016100a2565b34801561011b575f5ffd5b506100ca61012a366004610537565b61032f565b34801561013a575f5ffd5b5061010260015481565b6100ca610152366004610537565b61039f565b348015610162575f5ffd5b505f54610175906001600160a01b031681565b6040516001600160a01b0390911681526020016100a2565b60026020525f90815260409020805481906101a7906106c1565b80601f01602080910402602001604051908101604052809291908181526020018280546101d3906106c1565b801561021e5780601f106101f55761010080835404028352916020019161021e565b820191905f5260205f20905b81548152906001019060200180831161020157829003601f168201915b505050506001830154600284015460038501546004909501549394919390925060ff1685565b60018054905f6102538361070d565b91905055506040518060a00160405280848152602001838152602001824261027b9190610725565b81525f6020808301829052604092830182905260015482526002905220815181906102a6908261078a565b50602082015160018281019190915560408301516002830155606083015160038301556080909201516004909101805460ff1916911515919091179055547f02fe3fddd43aad14ae5c30d5d694f19ecb065dfde85bb591b91e8af1448724d29084846103128542610725565b6040516103229493929190610845565b60405180910390a1505050565b5f8181526002602081905260409091209081015442101561038e5760405162461bcd60e51b8152602060048201526014602482015273111958591b1a5b99481b9bdd081c995858da195960621b60448201526064015b60405180910390fd5b600401805460ff1916600117905550565b5f8181526002602081905260409091209081015442106103f25760405162461bcd60e51b815260206004820152600e60248201526d10d85b5c185a59db88195b99195960921b6044820152606401610385565b5f341161043a5760405162461bcd60e51b815260206004820152601660248201527553656e642045544820746f20636f6e7472696275746560501b6044820152606401610385565b34816003015f82825461044d9190610725565b90915550505f8281526003602090815260408083203384529091528120805434929061047a908490610725565b90915550505f546001600160a01b03166340c10f193361049b346064610870565b6040516001600160e01b031960e085901b1681526001600160a01b03909216600483015260248201526044015f604051808303815f87803b1580156104de575f5ffd5b505af11580156104f0573d5f5f3e3d5ffd5b505060408051858152336020820152348183015290517f0a4a91237423e0a1766a761c7cb029311d8b95d6b1b81db1b949a70c98b4e08e9350908190036060019150a15050565b5f60208284031215610547575f5ffd5b5035919050565b5f81518084528060208401602086015e5f602082860101526020601f19601f83011685010191505092915050565b60a081525f61058e60a083018861054e565b905085602083015284604083015283606083015282151560808301529695505050505050565b634e487b7160e01b5f52604160045260245ffd5b5f5f5f606084860312156105da575f5ffd5b833567ffffffffffffffff8111156105f0575f5ffd5b8401601f81018613610600575f5ffd5b803567ffffffffffffffff81111561061a5761061a6105b4565b604051601f8201601f19908116603f0116810167ffffffffffffffff81118282101715610649576106496105b4565b604052818152828201602001881015610660575f5ffd5b816020840160208301375f602092820183015297908601359650604090950135949350505050565b5f5f60408385031215610699575f5ffd5b8235915060208301356001600160a01b03811681146106b6575f5ffd5b809150509250929050565b600181811c908216806106d557607f821691505b6020821081036106f357634e487b7160e01b5f52602260045260245ffd5b50919050565b634e487b7160e01b5f52601160045260245ffd5b5f6001820161071e5761071e6106f9565b5060010190565b80820180821115610738576107386106f9565b92915050565b601f82111561078557805f5260205f20601f840160051c810160208510156107635750805b601f840160051c820191505b81811015610782575f815560010161076f565b50505b505050565b815167ffffffffffffffff8111156107a4576107a46105b4565b6107b8816107b284546106c1565b8461073e565b6020601f8211600181146107ea575f83156107d35750848201515b5f19600385901b1c1916600184901b178455610782565b5f84815260208120601f198516915b8281101561081957878501518255602094850194600190920191016107f9565b508482101561083657868401515f19600387901b60f8161c191681555b50505050600190811b01905550565b848152608060208201525f61085d608083018661054e565b6040830194909452506060015292915050565b8082028115828204841417610738576107386106f956fea2646970667358221220ef99b7eeaddea545125a17ee78d968ae7f9069e552d306e2d3fd0acaa621acc164736f6c634300081c0033",
  "linkReferences": {},
  "deployedLinkReferences": {},
  "immutableReferences": {},
  "inputSourceName": "project/contracts/Crowdfunding.sol",
  "buildInfoId": "solc-0_8_28-cf277683a9242659e2b4268421d7410306bc2577"
}